:020000040800F2
:1000000020490020E9010008A90300085103000865
:10001000A5030008310200083105000800000000B7
:100020000000000000000000000000004501000882
:10003000350200080000000089010008B104000832
:10004000030200080302000803020008030200087C
:10005000030200080302000803020008030200086C
:10006000030200080302000803020008030200085C
:10007000030200080302000803020008030200084C
:10008000030200080302000803020008030200083C
:10009000030200080302000803020008030200082C
:1000A000030200080302000803020008030200081C
:1000B000030200080302000803020008030200080C
:1000C00003020008030200080302000803020008FC
:1000D00003020008030200080302000803020008EC
:1000E00003020008030200080302000803020008DC
:1000F00003020008030200080302000803020008CC
:1001000003020008030200080302000803020008BB
:1001100003020008030200080302000803020008AB
:10012000030200080302000803020008030200089B
:10013000DFF80CD000F06AF80048004755050008C9
:1001400020490020204B19680868B0E8F00F80F3C0
:100150000988BFF36F8F4FF0000080F311884EF0D5
:100160000D0E70470000000006480068006880F32C
:10017000088862B661B6BFF34F8FBFF36F8F00DFA1
:1001800000BF00BF08ED00E0EFF30980BFF36F8F01
:100190000D4B1A6820E9F00F106008B54FF0BF0052
:1001A00080F3118800F020FD4FF0000080F31188EB
:1001B000BDE8084019680868B0E8F00F80F30988C6
:1001C000BFF36F8F704700BF00000020EFF3118076
:1001D0004FF0BF0181F31188704780F31188704799
:1001E000EFF3058070470000064880470648004747
:1001F000FEE7FEE7FEE7FEE7FEE7FEE7FEE7FEE7D7
:10020000FEE7FEE7D104000831010008064C074D67
:1002100006E0E06840F0010394E8070098471034D6
:10022000AC42F6D3FFF788FF740F0008940F000864
:1002300000BFFEE770472DE9F04102460025002689
:10024000002000230024002791F803C00CF00F05C4
:1002500091F803C01CF0100F03D091F802C04CEAD3
:10026000050591F800C0BCF1000F31D014680020E2
:100270002BE04FF0010C0CFA00F3B1F800C00CEACF
:1002800003069E4220D183004FF00F0C0CFA03F7B7
:10029000BC4305FA03FC4CEA040491F803C0BCF12A
:1002A000280F06D14FF0010C0CFA00FCC2F814C064
:1002B0000AE091F803C0BCF1480F05D14FF0010CE2
:1002C0000CFA00FCC2F810C0401C0828D1D31460FE
:1002D000B1F800C0BCF1FF0F34DD546800202EE0FF
:1002E00000F1080C4FF0010808FA0CF3B1F800C057
:1002F0000CEA03069E4221D183004FF00F0C0CFA4A
:1003000003F7BC4305FA03FC4CEA040491F803C06C
:10031000BCF1280F05D100F1080C08FA0CF8C2F85E
:10032000148091F803C0BCF1480F07D100F1080C0C
:100330004FF0010808FA0CF8C2F81080401C082899
:10034000CED35460BDE8F0814161704701617047D0
:1003500000BFFEE708B50121882000F027F84FF420
:10036000C070ADF8000010208DF8030003208DF858
:10037000020069460948FFF75EFF0120ADF8000062
:1003800069460748FFF757FF4FF4C0710348FFF76E
:10039000DDFF01210248FFF7D9FF08BD001C014025
:1003A000000C014000BFFEE77047000029B1064A7B
:1003B00092690243044B9A6104E0034A92698243C2
:1003C000014B9A61704700000010024010B500F028
:1003D00001F810BD0CB50020019000903248006873
:1003E00040F480303049086000BF2F48006800F4B6
:1003F000003000900198401C0190009818B90198B5
:10040000B0F5A06FF1D12848006810F4003F02D089
:100410000120009001E0002000900098012842D1C6
:100420002248006840F01000204908600846006833
:1004300020F0030008600846006840F002000860F1
:1004400019484068184948600846406848600846AE
:10045000406840F4806048600846406820F47C10A2
:1004600048600846406840F4E81048600846006864
:1004700040F08070086000BF0B48006810F0007FFB
:10048000FAD00948406820F0030007494860084650
:10049000406840F00200486000BF0348406800F038
:1004A0000C000828F9D10CBD0010024000200240C9
:1004B00010B5FFF78BFE00F05FFC18B14FF08050D5
:1004C000024908600020FFF788FE10BD04ED00E03F
:1004D00010B51348006840F0010011490860084653
:1004E0004068104908400E494860084600680E49B7
:1004F00008400B4908600846006820F48020086026
:100500000846406820F4FE0048604FF41F008860F1
:10051000FFF75CFF4FF000600449086010BD000069
:10052000001002400000FFF8FFFFF6FE08ED00E0BB
:1005300000BFFEE702E008C8121F08C1002AFAD176
:1005400070477047002001E001C1121F002AFBD153
:10055000704700001FB5012080F3108800BFFFF72F
:10056000F9FE00200123CDE90030029003464FF44C
:100570007A720BA103900C4800F080FB002001234D
:10058000CDE90030029003464FF47A7207A1039040
:10059000084800F073FB00F0F5FA00BFFEE700002A
:1005A0005461736B20310000450B00085461736B7C
:1005B00020320000690B000810B504460E480068A0
:1005C00044600E480068844207D20B480168091D48
:1005D0000B48006800F00CFA0CE007480168091DA0
:1005E0000848006800F004FA07480068844201D215
:1005F0000548046010BD0000000000200C00002031
:100600003400002030000020280000202DE9F041B7
:1006100006460F461FB9B00000F04EF900E038461C
:10062000054655B14C2000F047F904460CB125634E
:1006300004E0284600F022FA00E000242046BDE84D
:10064000F081000070B523E000F0C6FA134800689E
:1006500008B9012000E00020054600F01DFCBDB9EE
:1006600000F0ECF90D48C068C468201D00F09CF94A
:100670000B480068401E0A4908600A480068401E8E
:100680000849086000F0EAF9204600F00DF800BFC4
:10069000044800680028D7D170BD0000F400002095
:1006A000080000200400002010B50446206B00F074
:1006B000E5F9204600F0E2F910BD000030B54FF436
:1006C0008843174810F0070F05D0C01D20F0070021
:1006D000134C041B1B1B0246124C22600024114DBC
:1006E0006C60D018083820F007000F4C2060002400
:1006F0000D4D2D686C600C4D2D682C601146441A10
:100700004C60094C24680C60084D4C682C60084D06
:100710004C682C604FF00044064D2C6030BD00004A
:100720001C0100204800002038000020400000206C
:100730003C0000204400002000BFFFF783FF034877
:1007400000680128F9D900F0C7F9F6E75400002045
:100750002DE9F04704460F4616469946DDF82080FD
:10076000002507E0795D04F134004155785D00B95A
:1007700002E06D1C102DF5D300BF00214320015570
:10078000052E00D30426E662201D00F02EF904F1A8
:10079000180000F02AF92461C6F10500A061646226
:1007A0000020606484F84800BDE8F08710B500249C
:1007B00007E004EB84010F4A02EB810000F008F926
:1007C000641C052CF5D30C4800F002F90B4800F02E
:1007D000FFF80B4800F0FCF80A4800F0F9F80A4866
:1007E00000F0F6F804480949086004480849086020
:1007F00010BD000054000020B8000020CC000020F4
:10080000E0000020F400002008010020300000205B
:100810003400002010B50146164800E00068036867
:100820008B42FBD30246436813448B4204D1436896
:100830004C682344436001460A464B6813440468ED
:10084000A34211D10C4C03682468A34208D04B6822
:100850000468646823444B6003681B680B6005E010
:10086000054B1B680B6001E003680B60884200D0F9
:10087000016010BD48000020380000200A490968C6
:10088000096809B9012100E0002121B14FF0FF31D1
:10089000064A116006E004490968C968C868034A45
:1008A00041681160704700003000002028000020DF
:1008B000FFF78CFC00BFFEE72DE9F04105464FF045
:1008C000000800F089F92B48006808B9FFF7F6FE28
:1008D00029480068054247D145B1083515F0070F92
:1008E00004D005F00700C0F108000544002D3BD0FE
:1008F00022480068854237D8214E3046046801E01E
:10090000264624686068A84202D220680028F7D1F1
:1009100018480068844227D0306800F10808206831
:1009200030606068401B102807D967196068401B59
:10093000786065603846FFF76DFF104960680968A8
:10094000081A0E490860084600680E49096888427E
:1009500003D20A4800680B490860074960680968C3
:10096000084360600020206000F096FA4046BDE831
:10097000F081000038000020440000203C000020EE
:100980004800002040000020001F4FF080730360EB
:10099000001F0160001F034B036014380260203801
:1009A00070470000B108000801460A69D1E901302A
:1009B0009860D1E9010358605068884201D1886885
:1009C0005060002008611068401E10601068704779
:1009D00000F1080141604FF0FF31816000F1080132
:1009E000C160016100210160704700210161704711
:1009F00010B502460B685C1C01D1106907E002F1DA
:100A0000080000E04068446824689C42FAD94468C1
:100A10004C604C68A160886041600A611468641C85
:100A2000146010BD42684A6093688B609368596097
:100A30009160086103685B1C0360704710B5FFF7A5
:100A4000C5FB05480068401C03490860BFF34F8F91
:100A5000BFF36F8F10BD00005000002010B5064896
:100A60000068401E044908600846006810B900206C
:100A7000FFF7B3FB10BD00005000002070B5064624
:100A80003546D6B1083D2C460C49606809680842D5
:100A900013D0206888B90949606809688843606094
:100AA00000F09AF80649606809680844044908603B
:100AB0002046FFF7AFFE00F0EFF970BD44000020C4
:100AC0003C00002003484FF0E02148610720086106
:100AD000704700003F1901004FF080500349086043
:100AE000BFF34F8FBFF36F8F7047000004ED00E03E
:100AF00070B504460026DCB100F06EF80E480068C0
:100B000005190E480068001DFFF74EFF50B90B484D
:100B1000006890F82C100120884009490968814339
:100B2000074801602846FFF747FD00F0B5F9064683
:100B30000EB9FFF7D1FF70BD0C00002000000020AF
:100B40001000002000BF01210648FFF7FDFBFA203E
:100B5000FFF7CEFF01210348FFF7F8FBFA20FFF76C
:100B6000C7FFF0E7000C014000BF0548006880F0B7
:100B70008000034908604FF47A70FFF7B9FFF4E78B
:100B80000C1C01401FB5002000900190029003460C
:100B900080220BA103900C4800F070F80446012C51
:100BA0000CD1FFF713FBA01E08490860012008497B
:100BB000086000200749086000F046F81FBD0000EB
:100BC00049444C4500000000390700082800002077
:100BD000140000200C00002002480068401C01495D
:100BE000086070472C0000201248006818B10120EE
:100BF000114908601DE000200F4908600F48006897
:100C0000B0FA80F0C0F11F0101EB81020C4B03EB45
:100C1000820042685268426000F1080243689342D1
:100C200002D14268526842604268D268054B1A603D
:100C300000BF70472C0000201C0000201000002086
:100C4000540000200000002010B50A48006840F45D
:100C50007F00084908600846006840F07F4008604F
:100C6000FFF730FF002004490860FFF77DFA0020FD
:100C700010BD000020ED00E0500000202DE9FF4FE6
:100C800081B0804615469946DDE90E7A28461099CE
:100C9000FFF7BCFC0446002C4FD0681E216B01EB13
:100CA000800B2BF0070B00953A462046119B0299CA
:100CB000FFF74EFD4A4641465846FFF765FE206065
:100CC000BAF1000F01D0CAF80040FFF7B7FE244880
:100CD0000068401C224908602248006840B9214849
:100CE00004600846006801280CD1FFF75FFD09E0A9
:100CF0001D48006830B91B480068C06AB84201D876
:100D00001848046019480068401C1849086094F8A5
:100D10002C100120884016490968084314490860CE
:100D2000E16A01EB8101134A02EB8100211DFFF70B
:100D300079FE0126FFF792FE01E04FF0FF36012E0B
:100D400009D10948006830B106480068C06AB84255
:100D500001D2FFF7C1FE304605B0BDE8F08F0000BC
:100D600008000020000000201400002024000020C3
:100D700010000020540000202DE9F04100273B48DE
:100D80000068002865D13A480068401C384908606E
:100D9000084606688EB93748D0F8008036480068A3
:100DA000344908603448C0F8008034480068401C6A
:100DB00032490860FFF762FD00BF31480068864293
:100DC0003BD300BF2B480068006808B9012000E051
:100DD000002020B14FF0FF30294908602CE0254861
:100DE0000068C068C4686568AE4202D224480560E5
:100DF00022E0201DFFF7D8FDA06A18B104F1180009
:100E0000FFF7D2FD94F82C10012088401D49096895
:100E100008431C490860E16A01EB81011A4A02EBB0
:100E20008100211DFFF7FEFD1849E06A0968C96AC3
:100E30008842C7D30127C5E700BF14480068C06ACD
:100E400000EB8000104951F82000012806D9012745
:100E500004E00F480068401C0D4908600D48006818
:100E600000B101273846BDE8F08100002C000020C9
:100E70000C00002030000020340000202000002062
:100E80002800002010000020540000200000002056
:100E9000180000201C00002070B50025FFF7CEFDD3
:100EA0002C480068401E2B4908600846006800284E
:100EB0004BD129480068002847D024E02748C06863
:100EC000C46804F11800FFF76FFD201DFFF76CFDEB
:100ED00094F82C10012088402149096808432049D2
:100EE0000860E16A01EB81011E4A02EB8100211DCD
:100EF000FFF798FD1C49E06A0968C96A884202D375
:100F000001201A4908601548006808B9012000E06E
:100F100000200028D2D01648006878B10AE0FFF718
:100F20002BFF10B101201149086011480068401ED4
:100F30000F4908600E4800680028F0D10B4800688F
:100F4000012802D10125FFF7C7FDFFF787FD2846DD
:100F500070BD00002C00002008000020E0000020F0
:100F60001000002054000020000000201C00002081
:100F700018000020940F000800000020540000001A
:100F800034050008E80F000854000020CC48000099
:100F90004405000800000000000000000000000000
:100FA0000000000000000000000000000000000041
:100FB0000000000000000000000000000000000031
:100FC0000000000000000000000000000000000021
:100FD0000000000000000000000000000000000011
:080FE00000000000AAAAAAAA61
:0400000508000131BD
:00000001FF
