:020000040800F2
:1000000028490020E90100083F02000837020008E3
:100010003B02000831020008A503000800000000B0
:100020000000000000000000000000004501000882
:1000300035020008000000008901000825030008BF
:10004000030200080302000803020008030200087C
:10005000030200080302000803020008030200086C
:10006000030200080302000803020008030200085C
:10007000030200080302000803020008030200084C
:10008000030200080302000803020008030200083C
:10009000030200080302000803020008030200082C
:1000A000030200080302000803020008030200081C
:1000B000030200080302000803020008030200080C
:1000C00003020008030200080302000803020008FC
:1000D00003020008030200080302000803020008EC
:1000E00003020008030200080302000803020008DC
:1000F00003020008030200080302000803020008CC
:1001000003020008030200080302000803020008BB
:1001100003020008030200080302000803020008AB
:10012000030200080302000803020008030200089B
:10013000DFF80CD000F06AF800480047C904000856
:1001400028490020204B19680868B0E8F00F80F3B8
:100150000988BFF36F8F4FF0000080F311884EF0D5
:100160000D0E70470000000006480068006880F32C
:10017000088862B661B6BFF34F8FBFF36F8F00DFA1
:1001800000BF00BF08ED00E0EFF30980BFF36F8F01
:100190000D4B1A6820E9F00F106008B54FF0BF0052
:1001A00080F3118800F0C6FC4FF0000080F3118846
:1001B000BDE8084019680868B0E8F00F80F30988C6
:1001C000BFF36F8F704700BF08000020EFF311806E
:1001D0004FF0BF0181F31188704780F31188704799
:1001E000EFF3058070470000064880470648004747
:1001F000FEE7FEE7FEE7FEE7FEE7FEE7FEE7FEE7D7
:10020000FEE7FEE74503000831010008064C074DF4
:1002100006E0E06840F0010394E8070098471034D6
:10022000AC42F6D3FFF788FFE80E0008080F00087D
:1002300000BFFEE7704700BFFEE700BFFEE7704764
:1002400010B500F001F810BD0CB500200190009031
:100250003248006840F480303049086000BF2F48C1
:10026000006800F4003000900198401C0190009854
:1002700018B90198B0F5A06FF1D12848006810F4C2
:10028000003F02D00120009001E000200090009883
:10029000012842D12248006840F01000204908603F
:1002A0000846006820F0030008600846006840F037
:1002B00002000860194840681849486008464068CC
:1002C00048600846406840F48060486008464068DE
:1002D00020F47C1048600846406840F4E81048600C
:1002E0000846006840F08070086000BF0B48006856
:1002F00010F0007FFAD00948406820F00300074959
:1003000048600846406840F00200486000BF03486B
:10031000406800F00C000828F9D10CBD0010024024
:100320000020024010B5FFF751FF00F0CBFC18B1E0
:100330004FF08050024908600020FFF74EFF10BDCB
:1003400004ED00E010B51348006840F001001149C9
:10035000086008464068104908400E494860084651
:1003600000680E4908400B4908600846006820F400
:10037000802008600846406820F4FE0048604FF482
:100380001F008860FFF75CFF4FF0006004490860C1
:1003900010BD0000001002400000FFF8FFFFF6FE55
:1003A00008ED00E000BFFEE70FB4054B10B503A950
:1003B000044A029800F017F810BC5DF814FB000026
:1003C000B70400085C00002002E008C8121F08C142
:1003D000002AFAD170477047002001E001C1121FC6
:1003E000002AFBD170472DE9F84F9946924688467E
:1003F0000546002759E0252801D0514623E0002377
:1004000015F8011F18462E2915D115F8011F0423D0
:100410002A290DD06FF02F022978A1F13004092C80
:1004200009D800EB800002EB400008446D1CF3E7A4
:1004300058F8040B6D1C2A7872B3632A08D0732A0B
:1004400010D0514610464A46904707F101072BE06D
:1004500018F8042B8DF8002000218DF801106E464D
:10046000012103E058F8046B4FF0FF315A074FF0B9
:10047000000401D409E0641C84420BDA8C42FADBEC
:10048000325D002AF7D105E0641C8C42FCDB305D54
:100490000028F9D1274405E00AE016F8010B51467F
:1004A0004A469047641EF8D26D1C28780028A2D1D5
:1004B0003846BDE8F88F38B504468DF80000694627
:1004C0000320ABBE204638BD1FB500200123CDE977
:1004D0000030029003900D484FF47A720CA103682B
:1004E0000D4800F071FB00200223CDE9003002909E
:1004F00003900A484FF47A7209A10368064800F095
:1005000063FB00F0E5FA00BFFEE7000000000020FA
:100510005461736B20310000B50A0008040000200C
:100520005461736B2032000010B504460E48006819
:1005300044600E480068844207D20B480168091DD8
:100540000B48006800F00CFA0CE007480168091D30
:100550000848006800F004FA07480068844201D2A5
:100560000548046010BD00000800002014000020B1
:100570003C00002038000020300000202DE9F04130
:1005800006460F461FB9B00000F04EF900E03846AD
:10059000054655B14C2000F047F904460CB12563DF
:1005A00004E0284600F022FA00E000242046BDE8DE
:1005B000F081000070B523E000F0B4FA1348006841
:1005C00008B9012000E00020054600F00BFCBDB991
:1005D00000F0ECF90D48C068C468201D00F09CF9DB
:1005E0000B480068401E0A4908600A480068401E1F
:1005F0000849086000F0EAF9204600F00DF800BF55
:10060000044800680028D7D170BD00000001002018
:10061000100000200C00002010B50446206B00F0F4
:10062000E5F9204600F0E2F910BD000030B54FF4C6
:100630008843174810F0070F05D0C01D20F00700B1
:10064000134C041B1B1B0246124C22600024114D4C
:100650006C60D018083820F007000F4C2060002490
:100660000D4D2D686C600C4D2D682C601146441AA0
:100670004C60094C24680C60084D4C682C60084D97
:100680004C682C604FF00044064D2C6030BD0000DB
:1006900028010020500000204000002048000020D9
:1006A000440000204C00002000BFFFF783FF0348F8
:1006B00000680128F9D900F0C7F9F6E760000020CA
:1006C0002DE9F04704460F4616469946DDF820808E
:1006D000002507E0795D04F134004155785D00B9EB
:1006E00002E06D1C102DF5D300BF00214320015501
:1006F000052E00D30426E662201D00F02EF904F139
:10070000180000F02AF92461C6F10500A0616462B6
:100710000020606484F84800BDE8F08710B500242C
:1007200007E004EB84010F4A02EB810000F008F9B6
:10073000641C052CF5D30C4800F002F90B4800F0BE
:10074000FFF80B4800F0FCF80A4800F0F9F80A48F6
:1007500000F0F6F8044809490860044808490860B0
:1007600010BD000060000020C4000020D800002060
:10077000EC000020000100201401002038000020BF
:100780003C00002010B50146164800E000680368F0
:100790008B42FBD30246436813448B4204D1436827
:1007A0004C682344436001460A464B68134404687E
:1007B000A34211D10C4C03682468A34208D04B68B3
:1007C0000468646823444B6003681B680B6005E0A1
:1007D000054B1B680B6001E003680B60884200D08A
:1007E000016010BD50000020400000200A49096847
:1007F000096809B9012100E0002121B14FF0FF3162
:10080000064A116006E004490968C968C868034AD5
:10081000416811607047000038000020300000205F
:10082000FFF7D4FC00BFFEE72DE9F04105464FF08D
:10083000000800F077F92B48006808B9FFF7F6FECA
:1008400029480068054247D145B1083515F0070F22
:1008500004D005F00700C0F108000544002D3BD08E
:1008600022480068854237D8214E3046046801E0AE
:10087000264624686068A84202D220680028F7D182
:1008800018480068844227D0306800F108082068C2
:1008900030606068401B102807D967196068401BEA
:1008A000786065603846FFF76DFF10496068096839
:1008B000081A0E490860084600680E49096888420F
:1008C00003D20A4800680B49086007496068096854
:1008D000084360600020206000F084FA4046BDE8D4
:1008E000F0810000400000204C0000204400002067
:1008F0005000002048000020001F4FF0807303606C
:10090000001F0160001F034B036014380260203891
:10091000704700002108000801460A69D1E901304A
:100920009860D1E9010358605068884201D1886815
:100930005060002008611068401E10601068704709
:1009400000F1080141604FF0FF31816000F10801C2
:10095000C1600161002101607047002101617047A1
:1009600010B502460B685C1C01D1106907E002F16A
:10097000080000E04068446824689C42FAD9446852
:100980004C604C68A160886041600A611468641C16
:10099000146010BD42684A6093688B609368596028
:1009A0009160086103685B1C0360704710B5FFF736
:1009B0000DFC05480068401C03490860BFF34F8FD9
:1009C000BFF36F8F10BD00005800002010B506481F
:1009D0000068401E044908600846006810B90020FD
:1009E000FFF7FBFB10BD00005800002070B5064665
:1009F0003546D6B1083D2C460C4960680968084266
:100A000013D0206888B90949606809688843606024
:100A100000F088F8064960680968084404490860DD
:100A20002046FFF7AFFE00F0DDF970BD4C0000205E
:100A30004400002003484FF0E0214861072008618E
:100A4000704700003F1901004FF0805003490860D3
:100A5000BFF34F8FBFF36F8F7047000004ED00E0CE
:100A600070B504460026DCB100F05CF80E48006862
:100A700005190E480068001DFFF74EFF50B90B48DE
:100A8000006890F82C1001208840094909688143CA
:100A9000074801602846FFF747FD00F0A3F9064626
:100AA0000EB9FFF7D1FF70BD140000200800002030
:100AB000180000200446254600BF294603A0FFF782
:100AC00073FCFA20FFF7CCFFF7E700002573000066
:100AD0001FB50020009001900290034680220BA1D8
:100AE00003900C4800F070F80446012C0CD1FFF77D
:100AF0006DFBA01E0849086001200849086000201D
:100B00000749086000F046F81FBD000049444C4505
:100B100000000000A9060008300000201C00002092
:100B20001400002002480068401C0149086070471A
:100B3000340000201248006818B1012011490860F3
:100B40001DE000200F4908600F480068B0FA80F0EF
:100B5000C0F11F0101EB81020C4B03EB82004268E4
:100B60005268426000F108024368934202D1426831
:100B7000526842604268D268054B1A6000BF7047F5
:100B80003400002024000020180000206000002015
:100B90000800002010B50A48006840F47F000849AA
:100BA00008600846006840F07F400860FFF742FF99
:100BB000002004490860FFF7D7FA002010BD0000AC
:100BC00020ED00E0580000202DE9FF4F81B0804665
:100BD00015469946DDE90E7A28461099FFF7CEFCB6
:100BE0000446002C4FD0681E216B01EB800B2BF0CC
:100BF000070B00953A462046119B0299FFF760FDCE
:100C00004A4641465846FFF777FE2060BAF1000F8A
:100C100001D0CAF80040FFF7C9FE24480068401C14
:100C2000224908602248006840B92148046008460B
:100C3000006801280CD1FFF771FD09E01D4800682C
:100C400030B91B480068C06AB84201D8184804602F
:100C500019480068401C1849086094F82C100120BD
:100C6000884016490968084314490860E16A01EBA5
:100C70008101134A02EB8100211DFFF78BFE012643
:100C8000FFF7A4FE01E04FF0FF36012E09D109481D
:100C9000006830B106480068C06AB84201D2FFF768
:100CA000D3FE304605B0BDE8F08F000010000020F4
:100CB000080000201C0000202C000020180000204C
:100CC000600000202DE9F04100273B480068002823
:100CD00065D13A480068401C3849086008460668F3
:100CE0008EB93748D0F8008036480068344908602B
:100CF0003448C0F8008034480068401C324908601D
:100D0000FFF774FD00BF3148006886423BD300BF47
:100D10002B480068006808B9012000E0002020B1DD
:100D20004FF0FF30294908602CE025480068C06872
:100D3000C4686568AE4202D22448056022E0201DE6
:100D4000FFF7EAFDA06A18B104F11800FFF7E4FD0F
:100D500094F82C10012088401D49096808431C495B
:100D60000860E16A01EB81011A4A02EB8100211D52
:100D7000FFF710FE1849E06A0968C96A8842C7D3BC
:100D80000127C5E700BF14480068C06A00EB800077
:100D9000104951F82000012806D9012704E00F4826
:100DA0000068401C0D4908600D48006800B101272B
:100DB0003846BDE8F0810000340000201400002017
:100DC000380000203C0000202800002030000020D7
:100DD00018000020600000200800002020000020F3
:100DE0002400002070B50025FFF7E0FD2C480068C6
:100DF000401E2B4908600846006800284BD129484E
:100E00000068002847D024E02748C068C46804F17F
:100E10001800FFF781FD201DFFF77EFD94F82C10D0
:100E20000120884021490968084320490860E16A97
:100E300001EB81011E4A02EB8100211DFFF7AAFD93
:100E40001C49E06A0968C96A884202D301201A492C
:100E500008601548006808B9012000E0002000285B
:100E6000D2D01648006878B10AE0FFF72BFF10B126
:100E700001201149086011480068401E0F490860B0
:100E80000E4800680028F0D10B480068012802D104
:100E90000125FFF7D9FDFFF799FD284670BD000039
:100EA0003400002010000020EC000020180000207A
:100EB0006000002008000020240000202000002006
:100EC0005461736B20312069732072756E696E678F
:100ED0000D0A005461736B20322069732072756EA5
:100EE000696E670D0A000000080F0008000000206E
:100EF00060000000C8030008680F000860000020C0
:100F0000C8480000D8030008C00E0008D30E00082F
:100F100000000000000000000000000000000000D1
:100F200000000000000000000000000000000000C1
:100F300000000000000000000000000000000000B1
:100F400000000000000000000000000000000000A1
:100F50000000000000000000000000000000000091
:080F6000AAAAAAAA00000000E1
:0400000508000131BD
:00000001FF
